:100000003CC0000064C2000062C2000060C2000088
:100010005EC200005CC200005AC20000DDC20000E7
:1000200056C2000054C2000052C20000AEC200001E
:100030004EC200004CC200007EC2000048C2000058
:1000400046C2000044C2000042C2000040C200009C
:100050003EC200003CC200003AC2000038C20000AC
:1000600036C2000034C20000010001068001060112
:100070000C0006A0010C0114800011241FBECFEF5C
:10008000D8E0DEBFCDBFE8E6F0E040E017C0B591B4
:10009000A59135912591059107FD0CC0959185910C
:1000A000EF01F92FE82F05900D92A217B307D9F7AA
:1000B000FE0104C01D92A217B307E1F7E937F40768
:0A00C00031F703D000C0F894FFCF21
:1000CA0000D01F92CDB7DEB778D1F3D080E8C4D084
:1000DA008FE49EE49A8389831B82CE010196DBD04A
:1000EA00789481E080930C0128E632E040E064EFE6
:1000FA0071E080E090E07FD080910C018111FECF09
:10010A0081E080930C0128E632E040E068EC70E080
:10011A0080E090E070D080910C018111FECF81E0E7
:10012A0080930C0128E632E040E068EC70E080E061
:10013A0090E061D080910C018111FECF81E0809323
:10014A000C0128E632E040E068EC70E080E090E0E4
:10015A0052D080910C018111FECF81E080930C0175
:10016A0028E632E040E068EC70E080E090E043D0BE
:10017A0080910C018111FECF81E080930C0128E669
:10018A0032E040E064EF71E080E090E034D08091AA
:10019A000C018111FECF81E080930C0128E632E048
:1001AA0040E064EF71E080E090E025D080910C019E
:1001BA008111FECF81E080930C0128E632E040E015
:1001CA0064EF71E080E090E016D080910C0181111B
:1001DA00FECF81E080930C0128E632E041E068EE30
:1001EA0073E080E090E007D08FE39CE90197F1F794
:0601FA0000C00000F9CF77
:100200004093110130931301209312016530710561
:1002100081059105C4F0DC01CB01B595A7959795B3
:100220008795B595A79597958795809308019093A5
:100230000901A0930A01B0930B014DE153E06FEF68
:100240007FEF81E0C0C04FEF5FE3649F9001659F47
:10025000300D749F300D112443E153E0B90181E06A
:02026000B2C02A
:10026200CF93C82F2C98C8D08C2F8295807FC4D072
:1002720087EC90E00197F1F700C00000C43020F055
:10028200C03848F4CF9108958FE39FE10197F1F7C9
:0E02920000C00000C0E8C0930601CF9108959F
:1002A000CF93DF93EC018881882329F02196BAD07F
:0C02B00089918111FCCFDF91CF9108955E
:1002BC00229A549A539A529A249A239A2B982C98AD
:1002CC008FE59AEE0197F1F700C000005A985B9801
:1002DC005C985C9A2A982A9A2B9A95E09A95F1F751
:1002EC0000002B988FE090E40197F1F700C000001C
:1002FC005A985B985C985C9A2A982A9A2B9A95E063
:10030C009A95F1F700002B988FE891E00197F1F79F
:10031C0000C000005A985B985C985C9A2A982A9ABC
:10032C002B9A95E09A95F1F700002B9887EC90E0CA
:10033C000197F1F700C000005A985B985C985C9AA2
:10034C002A982B9A95E09A95F1F700002B9887EC58
:10035C0090E00197F1F700C000002C9888E247D09C
:10036C0080E845D087EC90E00197F1F700C00000E1
:10037C002C9888E03CD080E83AD087EC90E001974C
:10038C00F1F700C0000081E066DF2C9886E02FD0EA
:10039C0080E62DD087EC90E00197F1F700C00000CB
:1003AC002C988CE024D080EC22D087EC90E0019744
:0803BC00F1F700C000000895F4
:0203C4004EC029
:1003C600EFE6F0E090819D7F908350930501409386
:1003D6000401709389006093880010928000886001
:1003E6008093810010928500109284008081826043
:0403F6008083089563
:1003FA005A9887FD10C05B9886FD5B9A5C9885FDCC
:10040A005C9A2A9884FD2A9A2B9A85E08A95F1F7B4
:0A041A0000002B9808955A9AEECFC7
:10042400CF93C82F2C9AE7DF8C2F8295807FE3DF50
:1004340087EC90E00197F1F700C00000809106017D
:100444008F5F80930601803939F0803D19F480E88C
:0E045400CF9105CFCF91089580ECCF9100CFCE
:1004620084B114B885B19FEF95B987B1807887B907
:1004720088B18F6788B98AB11AB88BB19BB9229AB1
:100482002A98239A2B98249A2C98539A5B98549AD8
:100492005C9838983898409A39983998419A3A989D
:1004A2003A98429A3A983A98429A529A5A9840E01E
:0E04B20060E881E690E003D013BE15BE089509
:0E04C0002FB7F894FC01608340832FBF08958E
:0204CE0098CDC7
:1004D000CF93DF9300D000D0CDB7DEB78091070176
:1004E000811119C080E8BDDE8FE49EE49A83898380
:1004F00080E290E09C838B83CE010196D1DE81E087
:100500008093070110920C010F900F900F900F90A5
:10051000DF91CF91089580E8A4DE8FE496E49A837A
:10052000898386E490E09C838B83CE010196B8DEBC
:0605300010920701E7CF65
:100536001F920F920FB60F9211242F933F934F9352
:100546005F936F937F938F939F93AF93BF93EF9335
:10055600FF93E0910001F09101010995FF91EF9160
:10056600BF91AF919F918F917F916F915F914F91C5
:0E0576003F912F910F900FBE0F901F90189580
:06058400109281000895B1
:10058A001F920F920FB60F9211242F933F934F93FE
:10059A005F936F937F938F939F93AF93BF93EF93E1
:1005AA00FF93E0910401F09105010995FF91EF9104
:1005BA00BF91AF919F918F917F916F915F914F9171
:0E05CA003F912F910F900FBE0F901F9018952C
:1005D8001F920F920FB60F9211242F933F934F93B0
:1005E8005F936F937F938F939F93AF93BF93EF9393
:1005F800FF93E0910201F09103010995FF91EF91BA
:10060800BF91AF919F918F917F916F915F914F9122
:0E0618003F912F910F900FBE0F901F901895DD
:10062600E0911201F0911301099580911101811158
:040636000895A5CFAF
:10063A0080910D0190910E01A0910F01B0911001CE
:10064A000196A11DB11D80930D0190930E01A093F7
:10065A000F01B09310014091080150910901609176
:10066A000A0170910B0184179507A607B70709F0CD
:10067A00089510920D0110920E0110920F0110921E
:10068A001001E0911201F091130109958091110175
:06069A008111EECF72CFCA
:0106A00080D9
:0106A1000157
:0406A2000100000053
:00000001FF
