:100000000C9470000C94170A0C94170A0C94170A9D
:100010000C9420050C94170A0C94170A0C945108A0
:100020000C94170A0C94170A0C94170A0C942A08BB
:100030000C94170A0C94170A0C9403080C94170AD2
:100040000C94170A0C94170A0C94170A0C94170AAC
:100050000C94170A0C94170A0C94170A0C94170A9C
:100060000C94170A0C94170A0C94170A0C94170A8C
:100070000C94170A0C94170A0C94170A0C94170A7C
:100080000C94170A0C94170A0C94170A0C94170A6C
:100090000C94170A0C94170A0C94170A0C94170A5C
:1000A0000C94170A0C94170A0C94170A0C94170A4C
:1000B0000C94170A89037E03730368035D035203DC
:1000C00047033C03310326030100011280011201A2
:1000D0001300143201130117800117011B001433A0
:1000E00011241FBECFEFD8E0DEBFCDBFE8ECF0E0BB
:1000F00040E017C0B591A59135912591059107FD77
:100100000CC095918591EF01F92FE82F05900D9284
:10011000A217B307D9F7FE0104C01D92A217B307B7
:10012000E1F7E03EF40731F70E949D030C9498003C
:04013000F894FFCF71
:100134006F70653A2020252E31306C75007365741C
:100144003A2020252E31306C750053657420766179
:100154006C756520636F6E6669670050726F672007
:0C0164006D6F64650000000000000000EA
:0B0170005265766973696F6E2573009D
:09017B0030302E30302E313300FB
:100184002F923F924F926F927F928F929F92AF9253
:10019400BF92CF92DF92EF92FF920F931F93CF9370
:1001A400DF93CDB7DEB762970FB6F894DEBF0FBE0C
:1001B400CDBF6C013A01862E7901FC0110861782AD
:1001C400848181FFE7C19E012F5F3F4F3D872C87CC
:1001D400C901A0E8888B998BAA8B9FE3992EF30120
:1001E400849187FC8081882309F4D0C1482D930130
:1001F4002F5F3F4F4F4F853219F03901842E0AC0CB
:10020400F901849147FD808192E0690E711C811C83
:10021400853229F4B60190E00E944107E0CFB12C69
:1002240000E010E01032A0F48B3269F030F4803238
:1002340059F0833269F410612CC08D3239F0803367
:1002440039F4116026C01260146023C0186021C004
:1002540017FD29C090ED980F9A3078F416FF06C068
:10026400AAE0BA9E900D1124B92E13C0EAE00E9FA5
:10027400900D1124092F10620CC08E3221F416FD4A
:1002840085C1106406C08C3611F4106802C088362B
:1002940051F4F301849187FC8081FFEF6F1A7F0A88
:1002A4008F0A8111BFCF982F9F7D9554933028F4E6
:1002B40024E0E20EF11C99820FC0833631F08337BB
:1002C40091F0833509F063C027C0F70180818983E9
:1002D40097012E5F3F4F7901288839884A88AA24DC
:1002E400A394B12C17C0A7014D5F5F4F5F874E8762
:1002F400F70120803180428016FF03C04B2D50E06F
:1003040002C04FEF5FEF842DB1010E94FF085C0132
:10031400EE84FF841F7718C097012D5F3F4F3F87FE
:100324002E87F70120803180428016FF03C04B2DB9
:1003340050E002C04FEF5FEF842DB1010E94FF082F
:100344005C011068EE84FF8413FD1DC0802F90E0D3
:10035400A816B906C0F4B60180E290E00E944107F5
:100364000150F4CFF101849147FC8081FFEF2F1AF3
:100374003F0A4F0AB60190E00E9441070111015063
:1003840021E0A21AB108A114B10461F7F5C08436C2
:1003940011F0893671F5F70117FF08C0608171818A
:1003A4008281938197012C5F3F4F09C060817181E5
:1003B400072E000C880B990B97012E5F3F4F790194
:1003C4001F76312E97FF0AC09095809570956195A0
:1003D4007F4F8F4F9F4F312F3068332E2AE030E00C
:1003E400AE014F5F5F4F0E948005482E4C85441A32
:1003F4004AC0853729F41F7EA12E2AE030E025C0AB
:10040400512F597FA52E8F36C1F018F4883579F015
:10041400BDC0803719F0883721F0B8C0852F8061BE
:10042400A82EA4FE0DC09A2D9460A92E09C014FF15
:100434000AC0A52FA660AA2E06C028E030E005C099
:1004440020E130E002C020E132E0F701A7FE08C05D
:100454006081718182819381A7014C5F5F4F07C0E6
:100464006081718180E090E0A7014E5F5F4F7A0167
:10047400AE014F5F5F4F0E948005482E5C85451A90
:100484008A2D8F77382E36FE0DC0932D9E7FA92E90
:100494004B1458F434FE0BC032FC09C0A32DAE7EBD
:1004A400AA2E05C0142DA32C03C0142D01C01B2D8E
:1004B400A4FE0EC0FE01E40DF11D8081803321F401
:1004C400EA2DE97EAE2E08C0A2FE05C01E5F04C060
:1004D4008A2D867809F01F5FA3FC11C0A0FE06C018
:1004E400101788F4040DB02EB11A0EC0101760F462
:1004F400B60180E290E00E9441071F5FF7CF10171A
:1005040018F4011B02C0B42C00E0A4FE10C0B60114
:1005140080E390E00E944107A2FE17C0A1FC03C043
:1005240088E790E002C088E590E0B6010CC08A2D0F
:10053400867859F0A1FE02C08BE201C080E2A7FCDC
:100544008DE2B60190E00E9441074B1438F4B601E5
:1005540080E390E00E944107BA94F7CF4A94E1E027
:10056400F0E0EC0FFD1FE40DF11D8081B60190E079
:100574000E9441074110F2CF002309F430CEB601A6
:1005840080E290E00E9441070150F6CFF601878196
:10059400908502C08FEF9FEF62960FB6F894DEBF8E
:1005A4000FBECDBFDF91CF911F910F91FF90EF90C0
:1005B400DF90CF90BF90AF909F908F907F906F907F
:0805C4004F903F902F90089525
:1005CC008F929F92AF92BF92EF92FF920F931F93D5
:1005DC00CF93C82F682F8AE00E9499094B015C01C8
:1005EC00C1110FC060910601709107018091080143
:1005FC00909109012AE030E040E050E00E94C108EF
:10060C0014C06091060170910701809108019091CE
:10061C000901A50194010E94C108CA01B9012AE08F
:10062C0030E040E050E00E94C1080C2F10E00A308E
:10063C00110508F072C0F801E65AFF4F0C94030A3A
:10064C00EE24EA9415E3F12E05E614ECA5019401D1
:10065C000E94300662C0EE24EA941EE1F12E0AE0FC
:10066C001AEFA50194010E94300657C01FE7E12E36
:10067C0019E6F12E07E61FEFA50194010E94300642
:10068C004CC01FEBE12E1DEBF12E00EF1FEFA5016F
:10069C0094010E94300641C01FE5E12E19E7F12EAE
:1006AC000EEF1FEFA50194010E94300636C01FEE1D
:1006BC00E12E18EDF12E0FEF1FEFA50194010E9412
:1006CC0030062BC017E1E12E1CEFF12E0FEF1FEFC0
:1006DC00A50194010E94300620C01BE9E12EFF24E5
:1006EC00FA940FEF1FEFA50194010E94300615C07C
:1006FC0015EFE12EFF24FA940FEF1FEFA5019401E3
:10070C000E9430060AC01EEFE12EFF24FA940FEF70
:10071C001FEFA50194010E943006CF911F910F91FC
:0E072C00FF90EF90BF90AF909F908F90089538
:10073A00CDB7DEB76297DEBFCDBF19820E94110A1C
:10074A000E94DE050E940507609306017093070167
:10075A00809308019093090180E80E9435098BE78C
:10076A0091E0A0E0AF939F938F9380E791E0A0E0A0
:10077A00AF939F938F938E010E5F1F4F1F930F931B
:10078A000E949E08C8010E94D7092FEF87EA91E6C6
:10079A00215080409040E1F700C000000E947D0691
:1007AA000E94C10678940FB6F894DEBF0FBECDBF83
:1007BA008FE39CE90197F1F700C0000080911501D1
:1007CA00882349F080911001811105C081E0898355
:1007DA001092150140C080911501882349F080913B
:1007EA001001882329F082E089831092150133C011
:1007FA0080911401882349F080911001882329F0FF
:10080A0083E089831092140126C080911301882302
:10081A0049F080911001882329F084E0898310929D
:10082A00130119C080911601882349F080911101A2
:10083A00811105C085E08983109216010CC0809150
:10084A001601882341F080911101882321F086E066
:10085A00898310921601CE0101960E943504A8CF11
:10086A001F93CF93DF93EC018881833061F128F4E1
:10087A00813059F08230D1F06AC0853009F44BC01A
:10088A0090F1863009F458C062C00E94090A0E9499
:10089A00780886E080930F0111E010930E0161E061
:1008AA000E94760910931001188251C080910F019D
:1008BA008F3038F460910E018F5F80930F010E9490
:1008CA007609188244C090910F018FE0891B0E941B
:1008DA00E6020E94C10660910E0180910F010E94FA
:1008EA007609188234C060910601709107018091DF
:1008FA000801909109010E947D070E94140A0E9432
:10090A00090A0E947D060E94C1060E940D0A1092E1
:10091A00100118821CC00E94090A0E94AD078FE0CC
:10092A0080930F0111E010930E0161E00E94760995
:10093A001093110118820BC00E94090A0E947D06B9
:10094A000E94C1060E940D0A109211011882DF91BD
:06095A00CF911F910895EA
:1009600084B114B885B19FEF95B987B1807887B904
:1009700088B18F6788B98AB11AB88BB19BB98DB12C
:10098000807F8DB98EB18F608EB984B1846084B957
:1009900085B18B7F85B984B1886084B985B1877F43
:1009A00085B984B1806184B985B18F7E85B98AB1FA
:1009B00088608AB98BB1877F8BB98AB180618AB927
:1009C0008BB18F7E8BB987B18E7F87B987B18E7FD0
:1009D00087B988B1816088B987B18D7F87B987B1C0
:1009E0008D7F87B988B1826088B987B18B7F87B9DD
:1009F00087B18B7F87B988B1846088B987B1877FD9
:100A000087B987B1877F87B988B1886088B9E8E6F8
:100A1000F0E0808182608083ECE6F0E080818F608E
:100A200080838AB184608AB98BB18B7F8BB940E0B7
:100A300060E881E690E00E94FC0913BE15BE0895AF
:100A40001F920F920FB60F9211242F933F934F9343
:100A50008F939F9386B1817096B19695917026B1D0
:100A600022FB222720F936B133FB332730F940919E
:100A70001A01841761F0811106C010921A0181E0F9
:100A80008093160133C081E080931A012FC08091BA
:100A90001901981761F0911106C01092190181E0B7
:100AA0008093150123C081E0809319011FC08091BC
:100AB0001801281761F0211106C01092180181E079
:100AC0008093140113C081E0809318010FC08091BE
:100AD0001701381759F0311106C01092170181E043
:100AE0008093130103C081E0809317019F918F9140
:100AF0004F913F912F910F900FBE0F901F9018951F
:100B0000FA01AA27283051F1203181F1E8946F933E
:100B10006E7F6E5F7F4F8F4F9F4FAF4FB1E03ED0E4
:100B2000B4E03CD0670F781F891F9A1FA11D680F82
:100B3000791F8A1F911DA11D6A0F711D811D911DB5
:100B4000A11D20D009F468943F912AE0269F11242A
:100B50003019305D3193DEF6CF010895462F47708E
:100B6000405D4193B3E00FD0C9F7F6CF462F4F70E9
:100B7000405D4A3318F0495D31FD4052419302D047
:100B8000A9F7EACFB4E0A6959795879577956795ED
:100B9000BA95C9F700976105710508959B01AC01ED
:100BA0000A2E06945795479537952795BA95C9F714
:0C0BB000620F731F841F951FA01D089585
:100BBC0084B1846084B98AB180618AB98AB1886051
:100BCC008AB98AB184608AB984B1806184B984B1EC
:100BDC00886084B985B1877F85B985B18F7E85B9E9
:100BEC008FE59AEE0197F1F700C0000080E30E94B8
:100BFC00D8078FE090E40197F1F700C0000080E384
:100C0C000E94D8078FE891E00197F1F700C000002F
:100C1C0080E30E94D80787EC90E00197F1F700C0C1
:100C2C00000080E20E94D80787EC90E00197F1F772
:100C3C0000C0000088E20E94350988E00E94350956
:100C4C0081E00E94350986E00E9435098CE00E9403
:040C5C0035090895B9
:100C60008F929F92AF92BF92CF92DF92EF92FF92BC
:100C70000F931F938090060190900701A0900801A8
:100C8000B09009018E149F04A006B106A8F48091CB
:100C9000060190910701A0910801B0910901820F0E
:100CA000931FA41FB51F8093060190930701A09383
:100CB0000801B093090116C0C0900601D090070149
:100CC000E0900801F09009010E94AA09C61AD70A0B
:100CD000E80AF90AC0920601D0920701E0920801E1
:100CE000F09209011F910F91FF90EF90DF90CF904C
:0A0CF000BF90AF909F908F90089581
:100CFA000F931F93CF93DF93CDB7DEB761970FB6EC
:100D0A00F894DEBF0FBECDBF1A821982FE01339658
:100D1A008FE0DF011D928A95E9F780910A0190918F
:100D2A000B01A0910C01B0910D01BF93AF939F935A
:100D3A008F9384E391E0A0E0AF939F938F938E010A
:100D4A000F5F1F4F1F930F930E949E0880E80E9417
:100D5A003509C8010E94D7090FB6F894DEBF0FBE45
:100D6A00CDBF61960FB6F894DEBF0FBECDBFDF913F
:080D7A00CF911F910F91089524
:100D82000F931F93CF93DF93CDB7DEB761970FB663
:100D9200F894DEBF0FBECDBF1A821982FE013396D0
:100DA2008FE0DF011D928A95E9F78091060190910B
:100DB2000701A0910801B0910901BF93AF939F93DE
:100DC2008F9381E491E0A0E0AF939F938F938E0184
:100DD2000F5F1F4F1F930F930E949E0880EC0E948B
:100DE2003509C8010E94D7090FB6F894DEBF0FBEBD
:100DF200CDBF61960FB6F894DEBF0FBECDBFDF91B7
:080E0200CF911F910F9108959B
:100E0A00CF92DF92EF92FF92CF93DF9384E090E04C
:100E1A000E94C9098F3A29F060E070E0CB010E9474
:100E2A007D07C0E0D0E0C12CD12C760119C0CE01DB
:100E3A000E94C90990E0A0E0B0E09E01220F331F92
:100E4A00220F331F220F331F04C0880F991FAA1FB6
:100E5A00BB1F2A95D2F7C82AD92AEA2AFB2A219641
:100E6A00C430D10524F3C701B601DF91CF91FF90B9
:080E7A00EF90DF90CF90089586
:100E82000F931F93CF93DF93FB01248121FD03C0B6
:100E92008FEF9FEF2CC022FF16C04781508525811E
:100EA20036814217530744F4A081B1819D012F5F1F
:100EB2003F4F318320838C93278130852F5F3F4FB3
:100EC2003087278314C08B01EC01FB010184F2857A
:100ED200E02D0995892BE1F6D80117968D919C9109
:100EE2001897019618969C938E931797CE01DF91CF
:080EF200CF911F910F910895AB
:100EFA00CF92DF92EF92FF92CF93DF936B017C0147
:100F0A00C0E0D0E016C0CE01880F991F880F991F44
:100F1A00880F991FA701960104C0569547953795E2
:100F2A0027958A95D2F7CA01B901CE010E946209B2
:100F3A002196C430D1053CF36FEA84E090E00E9428
:100F4A006209DF91CF91FF90EF90DF90CF900895E3
:100F5A00CF93DF93CDB7DEB761970FB6F894DEBFB4
:100F6A000FBECDBF2FE531E040E08AE0F901DE0196
:100F7A001196742F0E94E409FE013B9687E0DF0177
:100F8A001D928A95E9F780E80E943509CE010196FB
:100F9A000E94D70961960FB6F894DEBF0FBECDBF87
:060FAA00DF91CF910895D4
:100FB0009BB19B7F9BB988231CF49BB194609BB928
:100FC0009BB1977F9BB986FF03C09BB198609BB98B
:100FD0009BB19F7E9BB985FF03C09BB190619BB97C
:100FE00095B19B7F95B984FF03C085B1846085B9B5
:100FF00085B1886085B985E08A95F1F7000085B1F3
:06100000877F85B9089509
:101006001F920F920FB60F9211242F933F934F9377
:101016005F936F937F938F939F93AF93BF93EF935A
:10102600FF93E0910001F09101010995FF91EF9185
:10103600BF91AF919F918F917F916F915F914F91EA
:0E1046003F912F910F900FBE0F901F901895A5
:101054001F920F920FB60F9211242F933F934F9329
:101064005F936F937F938F939F93AF93BF93EF930C
:10107400FF93E0910401F09105010995FF91EF912F
:10108400BF91AF919F918F917F916F915F914F919C
:0E1094003F912F910F900FBE0F901F90189557
:1010A2001F920F920FB60F9211242F933F934F93DB
:1010B2005F936F937F938F939F93AF93BF93EF93BE
:1010C200FF93E0910201F09103010995FF91EF91E5
:1010D200BF91AF919F918F917F916F915F914F914E
:0E10E2003F912F910F900FBE0F901F90189509
:1010F000CF93DF93CDB7DEB761970FB6F894DEBF1D
:101100000FBECDBF2EE431E040E081E1F901DE0108
:101110001196742F0E94E40980E80E943509CE01DF
:1011200001960E94D7090E94C10661960FB6F894F5
:0C113000DEBF0FBECDBFDF91CF91089550
:10113C00AFE0B0E0E4EAF8E00C94F1080E891F8906
:10114C0086E08D831A8309838FEF9FE79F838E83BD
:10115C009E01255E3F4F488D598D6A8DCE010196BB
:10116C000E94C200E885F985E00FF11F10822F96CE
:06117C00E4E00C942809D8
:10118200A1E21A2EAA1BBB1BFD010DC0AA1FBB1F89
:10119200EE1FFF1FA217B307E407F50720F0A21BFB
:1011A200B30BE40BF50B661F771F881F991F1A9468
:1011B20069F760957095809590959B01AC01BD0192
:0411C200CF010895BC
:1011C6002F923F924F925F926F927F928F929F9251
:1011D600AF92BF92CF92DF92EF92FF920F931F933F
:1011E600CF93DF93CDB7DEB7CA1BDB0B0FB6F894F0
:0811F600DEBF0FBECDBF09945E
:1011FE00CF92DF92EF926B01E82EA82FCB01411513
:10120E00510531F48C199D09EF90DF90CF90089520
:10121E00FC012491A7FD20812223A1F30196A11D9B
:06122E0041505109ECCF14
:101234002A88398848885F846E847D848C849B8462
:10124400AA84B984C884DF80EE80FD800C811B8170
:10125400AA81B981CE0FD11D0FB6F894DEBF0FBE9F
:06126400CDBFED0108956D
:10126A00CF93C82F85B18F7E85B98C2F0E948809AC
:10127A00C43018F0C03850F007C08FE39FE10197DF
:10128A00F1F700C00000C0E8C0931201CF910895A1
:10129A0095B1906195B90E948809809112018F5F7A
:1012AA0080931201803919F0803D19F0089580EC7D
:0A12BA0001C080E80E943509089584
:1012C4000F931F93CF938C01C62F0E94140A12BD53
:1012D40001BDC0BD8FB384608FBB8FB382608FBBF1
:0812E400CF911F910F910895B5
:1012EC00CF93DF93C82FD62F8FE00E943509D130D2
:1012FC0011F480EC01C080E88C0F0E943509DF915D
:04130C00CF910895E0
:10131000CF93C82F0E94D8078C2F8295807F0E9480
:10132000D80787EC90E00197F1F700C00000CF915B
:0213300008951E
:10133200F82FE62F61E070E080E090E007C0AF2F69
:10134200B0E09B01AC010E94F109E150E111F7CF3D
:021352000895FC
:10135400DB018F939F930E94F109BF91AF91A29FEC
:10136400800D911DA39F900DB29F900D112408959F
:10137400A29FB001B39FC001A39F700D811D1124D2
:0E138400911DB29F700D811D1124911D0895C1
:10139200CF93DF93EC010E94140AD2BDC1BD8FB37B
:0C13A20081608FBB80B5DF91CF91089572
:1013AE00CF93DF93EC0103C00E944D0921968881F3
:0A13BE008111FACFDF91CF9108955D
:1013C800992777FD05C005900D920197E1F70895DB
:0A13D80001900D920197E1F70895CE
:1013E2000E94BA09A59F900DB49F900DA49F800DF5
:0613F200911D1124089575
:0E13F8002FB7F894FC01608340832FBF089547
:0C140600EE0FFF1F0590F491E02D0994FB
:0814120081E00E9435090895F4
:08141A008CE00E9435090895E1
:061422000E94B0040895D1
:06142800F999FECF0895C2
:04142E000C9400001A
:011432008039
:0114330001B7
:0114340001B6
:0114350001B5
:0114360001B4
:00000001FF
